{
  "_format": "hh-sol-artifact-1",
  "contractName": "LuckySpinFHE_Strict",
  "sourceName": "contracts/LuckySpinFHE_Strict.sol",
  "abi": [
    {
      "inputs": [],
      "stateMutability": "nonpayable",
      "type": "constructor"
    },
    {
      "anonymous": false,
      "inputs": [
        {
          "indexed": true,
          "internalType": "address",
          "name": "user",
          "type": "address"
        },
        {
          "indexed": false,
          "internalType": "uint256",
          "name": "timestamp",
          "type": "uint256"
        }
      ],
      "name": "CheckInCompleted",
      "type": "event"
    },
    {
      "anonymous": false,
      "inputs": [
        {
          "indexed": true,
          "internalType": "address",
          "name": "user",
          "type": "address"
        }
      ],
      "name": "ErrorChanged",
      "type": "event"
    },
    {
      "anonymous": false,
      "inputs": [
        {
          "indexed": true,
          "internalType": "address",
          "name": "user",
          "type": "address"
        },
        {
          "indexed": false,
          "internalType": "uint256",
          "name": "amount",
          "type": "uint256"
        }
      ],
      "name": "EthClaimed",
      "type": "event"
    },
    {
      "anonymous": false,
      "inputs": [
        {
          "indexed": true,
          "internalType": "address",
          "name": "user",
          "type": "address"
        },
        {
          "indexed": false,
          "internalType": "uint256",
          "name": "amount",
          "type": "uint256"
        }
      ],
      "name": "GmTokensBought",
      "type": "event"
    },
    {
      "anonymous": false,
      "inputs": [
        {
          "indexed": true,
          "internalType": "address",
          "name": "user",
          "type": "address"
        }
      ],
      "name": "GmTokensBoughtFHE",
      "type": "event"
    },
    {
      "anonymous": false,
      "inputs": [
        {
          "indexed": true,
          "internalType": "address",
          "name": "user",
          "type": "address"
        },
        {
          "indexed": false,
          "internalType": "uint256",
          "name": "score",
          "type": "uint256"
        }
      ],
      "name": "ScorePublished",
      "type": "event"
    },
    {
      "anonymous": false,
      "inputs": [
        {
          "indexed": true,
          "internalType": "address",
          "name": "user",
          "type": "address"
        }
      ],
      "name": "ScoreUnpublished",
      "type": "event"
    },
    {
      "anonymous": false,
      "inputs": [
        {
          "indexed": true,
          "internalType": "address",
          "name": "user",
          "type": "address"
        },
        {
          "indexed": false,
          "internalType": "uint256",
          "name": "newTotalScore",
          "type": "uint256"
        },
        {
          "indexed": false,
          "internalType": "uint256",
          "name": "delta",
          "type": "uint256"
        }
      ],
      "name": "ScoreUpdated",
      "type": "event"
    },
    {
      "anonymous": false,
      "inputs": [
        {
          "indexed": true,
          "internalType": "address",
          "name": "user",
          "type": "address"
        },
        {
          "indexed": false,
          "internalType": "uint64",
          "name": "count",
          "type": "uint64"
        }
      ],
      "name": "SpinBoughtWithGm",
      "type": "event"
    },
    {
      "anonymous": false,
      "inputs": [
        {
          "indexed": true,
          "internalType": "address",
          "name": "user",
          "type": "address"
        },
        {
          "indexed": false,
          "internalType": "string",
          "name": "result",
          "type": "string"
        }
      ],
      "name": "SpinCompleted",
      "type": "event"
    },
    {
      "anonymous": false,
      "inputs": [
        {
          "indexed": true,
          "internalType": "address",
          "name": "user",
          "type": "address"
        },
        {
          "indexed": false,
          "internalType": "uint8",
          "name": "slot",
          "type": "uint8"
        },
        {
          "indexed": false,
          "internalType": "uint256",
          "name": "prizeWei",
          "type": "uint256"
        },
        {
          "indexed": false,
          "internalType": "uint64",
          "name": "gmDelta",
          "type": "uint64"
        }
      ],
      "name": "SpinOutcome",
      "type": "event"
    },
    {
      "anonymous": false,
      "inputs": [
        {
          "indexed": true,
          "internalType": "address",
          "name": "user",
          "type": "address"
        },
        {
          "indexed": false,
          "internalType": "uint256",
          "name": "version",
          "type": "uint256"
        }
      ],
      "name": "UserStateChanged",
      "type": "event"
    },
    {
      "inputs": [],
      "name": "GM_TOKEN_RATE",
      "outputs": [
        {
          "internalType": "uint256",
          "name": "",
          "type": "uint256"
        }
      ],
      "stateMutability": "view",
      "type": "function"
    },
    {
      "inputs": [],
      "name": "SECONDS_PER_DAY",
      "outputs": [
        {
          "internalType": "uint256",
          "name": "",
          "type": "uint256"
        }
      ],
      "stateMutability": "view",
      "type": "function"
    },
    {
      "inputs": [],
      "name": "attestor",
      "outputs": [
        {
          "internalType": "address",
          "name": "",
          "type": "address"
        }
      ],
      "stateMutability": "view",
      "type": "function"
    },
    {
      "inputs": [],
      "name": "buyGmTokens",
      "outputs": [],
      "stateMutability": "payable",
      "type": "function"
    },
    {
      "inputs": [
        {
          "internalType": "externalEuint64",
          "name": "encryptedAmount",
          "type": "bytes32"
        },
        {
          "internalType": "bytes",
          "name": "proof",
          "type": "bytes"
        }
      ],
      "name": "buyGmTokensFHE",
      "outputs": [],
      "stateMutability": "payable",
      "type": "function"
    },
    {
      "inputs": [],
      "name": "buySpinWithGm",
      "outputs": [],
      "stateMutability": "nonpayable",
      "type": "function"
    },
    {
      "inputs": [
        {
          "internalType": "uint64",
          "name": "count",
          "type": "uint64"
        }
      ],
      "name": "buySpinWithGmBatch",
      "outputs": [],
      "stateMutability": "nonpayable",
      "type": "function"
    },
    {
      "inputs": [
        {
          "internalType": "uint256",
          "name": "plainWei",
          "type": "uint256"
        },
        {
          "internalType": "bytes",
          "name": "signature",
          "type": "bytes"
        }
      ],
      "name": "claimETH",
      "outputs": [],
      "stateMutability": "nonpayable",
      "type": "function"
    },
    {
      "inputs": [
        {
          "internalType": "address",
          "name": "",
          "type": "address"
        }
      ],
      "name": "claimNonce",
      "outputs": [
        {
          "internalType": "uint256",
          "name": "",
          "type": "uint256"
        }
      ],
      "stateMutability": "view",
      "type": "function"
    },
    {
      "inputs": [],
      "name": "dailyGm",
      "outputs": [],
      "stateMutability": "nonpayable",
      "type": "function"
    },
    {
      "inputs": [],
      "name": "emergencyWithdraw",
      "outputs": [],
      "stateMutability": "nonpayable",
      "type": "function"
    },
    {
      "inputs": [],
      "name": "getContractBalance",
      "outputs": [
        {
          "internalType": "uint256",
          "name": "",
          "type": "uint256"
        }
      ],
      "stateMutability": "view",
      "type": "function"
    },
    {
      "inputs": [
        {
          "internalType": "address",
          "name": "user",
          "type": "address"
        }
      ],
      "name": "getEncryptedLastSlot",
      "outputs": [
        {
          "internalType": "euint64",
          "name": "",
          "type": "bytes32"
        }
      ],
      "stateMutability": "view",
      "type": "function"
    },
    {
      "inputs": [
        {
          "internalType": "address",
          "name": "user",
          "type": "address"
        }
      ],
      "name": "getEncryptedPendingEthWei",
      "outputs": [
        {
          "internalType": "euint64",
          "name": "",
          "type": "bytes32"
        }
      ],
      "stateMutability": "view",
      "type": "function"
    },
    {
      "inputs": [
        {
          "internalType": "address",
          "name": "user",
          "type": "address"
        }
      ],
      "name": "getEncryptedScore",
      "outputs": [
        {
          "internalType": "euint64",
          "name": "",
          "type": "bytes32"
        }
      ],
      "stateMutability": "view",
      "type": "function"
    },
    {
      "inputs": [
        {
          "internalType": "address",
          "name": "user",
          "type": "address"
        }
      ],
      "name": "getEncryptedUserBundle",
      "outputs": [
        {
          "internalType": "euint64",
          "name": "spins",
          "type": "bytes32"
        },
        {
          "internalType": "euint64",
          "name": "gm",
          "type": "bytes32"
        },
        {
          "internalType": "euint64",
          "name": "pendingEthWei",
          "type": "bytes32"
        },
        {
          "internalType": "euint64",
          "name": "lastSlot",
          "type": "bytes32"
        },
        {
          "internalType": "euint64",
          "name": "score",
          "type": "bytes32"
        }
      ],
      "stateMutability": "view",
      "type": "function"
    },
    {
      "inputs": [
        {
          "internalType": "address",
          "name": "user",
          "type": "address"
        }
      ],
      "name": "getLastError",
      "outputs": [
        {
          "internalType": "euint8",
          "name": "code",
          "type": "bytes32"
        },
        {
          "internalType": "uint256",
          "name": "timestamp",
          "type": "uint256"
        }
      ],
      "stateMutability": "view",
      "type": "function"
    },
    {
      "inputs": [
        {
          "internalType": "address",
          "name": "user",
          "type": "address"
        }
      ],
      "name": "getPublicScore",
      "outputs": [
        {
          "internalType": "uint256",
          "name": "",
          "type": "uint256"
        }
      ],
      "stateMutability": "view",
      "type": "function"
    },
    {
      "inputs": [
        {
          "internalType": "uint256",
          "name": "offset",
          "type": "uint256"
        },
        {
          "internalType": "uint256",
          "name": "limit",
          "type": "uint256"
        }
      ],
      "name": "getPublishedRange",
      "outputs": [
        {
          "internalType": "address[]",
          "name": "addrs",
          "type": "address[]"
        },
        {
          "internalType": "uint256[]",
          "name": "scores",
          "type": "uint256[]"
        }
      ],
      "stateMutability": "view",
      "type": "function"
    },
    {
      "inputs": [
        {
          "internalType": "address",
          "name": "user",
          "type": "address"
        }
      ],
      "name": "getUserGmBalance",
      "outputs": [
        {
          "internalType": "euint64",
          "name": "",
          "type": "bytes32"
        }
      ],
      "stateMutability": "view",
      "type": "function"
    },
    {
      "inputs": [
        {
          "internalType": "address",
          "name": "user",
          "type": "address"
        }
      ],
      "name": "getUserRewards",
      "outputs": [
        {
          "internalType": "euint256",
          "name": "",
          "type": "bytes32"
        }
      ],
      "stateMutability": "view",
      "type": "function"
    },
    {
      "inputs": [
        {
          "internalType": "address",
          "name": "user",
          "type": "address"
        }
      ],
      "name": "getUserSpins",
      "outputs": [
        {
          "internalType": "euint64",
          "name": "",
          "type": "bytes32"
        }
      ],
      "stateMutability": "view",
      "type": "function"
    },
    {
      "inputs": [
        {
          "internalType": "address",
          "name": "user",
          "type": "address"
        }
      ],
      "name": "isScorePublished",
      "outputs": [
        {
          "internalType": "bool",
          "name": "",
          "type": "bool"
        }
      ],
      "stateMutability": "view",
      "type": "function"
    },
    {
      "inputs": [
        {
          "internalType": "address",
          "name": "",
          "type": "address"
        }
      ],
      "name": "lastCheckInDay",
      "outputs": [
        {
          "internalType": "uint256",
          "name": "",
          "type": "uint256"
        }
      ],
      "stateMutability": "view",
      "type": "function"
    },
    {
      "inputs": [
        {
          "internalType": "address",
          "name": "",
          "type": "address"
        }
      ],
      "name": "lastCheckInTime",
      "outputs": [
        {
          "internalType": "uint256",
          "name": "",
          "type": "uint256"
        }
      ],
      "stateMutability": "view",
      "type": "function"
    },
    {
      "inputs": [
        {
          "internalType": "address",
          "name": "",
          "type": "address"
        }
      ],
      "name": "lastOutcomeCommit",
      "outputs": [
        {
          "internalType": "bytes32",
          "name": "",
          "type": "bytes32"
        }
      ],
      "stateMutability": "view",
      "type": "function"
    },
    {
      "inputs": [
        {
          "internalType": "address",
          "name": "",
          "type": "address"
        }
      ],
      "name": "lastOutcomeNonce",
      "outputs": [
        {
          "internalType": "uint256",
          "name": "",
          "type": "uint256"
        }
      ],
      "stateMutability": "view",
      "type": "function"
    },
    {
      "inputs": [],
      "name": "owner",
      "outputs": [
        {
          "internalType": "address",
          "name": "",
          "type": "address"
        }
      ],
      "stateMutability": "view",
      "type": "function"
    },
    {
      "inputs": [
        {
          "internalType": "address",
          "name": "",
          "type": "address"
        }
      ],
      "name": "pendingSettlement",
      "outputs": [
        {
          "internalType": "bool",
          "name": "",
          "type": "bool"
        }
      ],
      "stateMutability": "view",
      "type": "function"
    },
    {
      "inputs": [
        {
          "internalType": "uint256",
          "name": "score",
          "type": "uint256"
        }
      ],
      "name": "publishScore",
      "outputs": [],
      "stateMutability": "nonpayable",
      "type": "function"
    },
    {
      "inputs": [],
      "name": "reinit",
      "outputs": [],
      "stateMutability": "nonpayable",
      "type": "function"
    },
    {
      "inputs": [
        {
          "internalType": "address",
          "name": "newAttestor",
          "type": "address"
        }
      ],
      "name": "setAttestor",
      "outputs": [],
      "stateMutability": "nonpayable",
      "type": "function"
    },
    {
      "inputs": [
        {
          "internalType": "uint8",
          "name": "slot",
          "type": "uint8"
        }
      ],
      "name": "settlePrize",
      "outputs": [],
      "stateMutability": "nonpayable",
      "type": "function"
    },
    {
      "inputs": [],
      "name": "spin",
      "outputs": [],
      "stateMutability": "nonpayable",
      "type": "function"
    },
    {
      "inputs": [],
      "name": "spinLite",
      "outputs": [],
      "stateMutability": "nonpayable",
      "type": "function"
    },
    {
      "inputs": [
        {
          "internalType": "address",
          "name": "",
          "type": "address"
        }
      ],
      "name": "spinNonce",
      "outputs": [
        {
          "internalType": "uint256",
          "name": "",
          "type": "uint256"
        }
      ],
      "stateMutability": "view",
      "type": "function"
    },
    {
      "inputs": [
        {
          "internalType": "address",
          "name": "",
          "type": "address"
        }
      ],
      "name": "stateVersion",
      "outputs": [
        {
          "internalType": "uint256",
          "name": "",
          "type": "uint256"
        }
      ],
      "stateMutability": "view",
      "type": "function"
    },
    {
      "inputs": [],
      "name": "unpublishScore",
      "outputs": [],
      "stateMutability": "nonpayable",
      "type": "function"
    },
    {
      "stateMutability": "payable",
      "type": "receive"
    }
  ],
  "bytecode": "0x608060409080825234620002bf57620000188162000387565b5f81525f606060209282848201528285820152015281516200003a8162000387565b73687820221192c5b662b25367f70076a37bc79b6c80825273848b0066793bcc60346da1f49049357399b8d5959081848401526060731364cbbf2cdf5032c47d8226a6f6fbd2afcdacac93848782015273bc91f3dad1a5f19f8390c400196e58073b6a0bc4918291015260018060a01b0319917fed8d60e34876f751cc8b014c560745351147d9de11b9347c854e881b128ea60090838254161790557fed8d60e34876f751cc8b014c560745351147d9de11b9347c854e881b128ea6019383838654161785557fed8d60e34876f751cc8b014c560745351147d9de11b9347c854e881b128ea60290838254161790557fed8d60e34876f751cc8b014c560745351147d9de11b9347c854e881b128ea60390828254161790557f5ea69329017273582817d320489fbd94f775580e90c092699ca6f3d12fdf7d007333347831500f1e73f0cccbb95c9f86b94d7b1123828254161790553381600a541617600a553390600b541617600b5583519083826044815f639cd07acb60e01b95868352816004840152600260248401525af180156200037d575f906200034a575b5f9250600e5560018060a01b03928484825416604488518096819387835260016004840152600260248401525af180156200030d575f9062000317575b5f9350600f558484825416604488518096819387835260026004840152600260248401525af180156200030d5785935f91620002d5575b50936044915f9560105554169186519485938492835260036004840152600260248401525af1918215620002cb575f9262000293575b505060115551612dab9081620003dc8239f35b90809250813d8311620002c3575b620002ad8183620003b7565b81010312620002bf57515f8062000280565b5f80fd5b503d620002a1565b83513d5f823e3d90fd5b8481939592503d831162000305575b620002f08183620003b7565b81010312620002bf575184929060446200024a565b503d620002e4565b86513d5f823e3d90fd5b508483813d831162000342575b620003308183620003b7565b81010312620002bf575f925162000213565b503d62000324565b508382813d831162000375575b620003638183620003b7565b81010312620002bf575f9151620001d6565b503d62000357565b85513d5f823e3d90fd5b608081019081106001600160401b03821117620003a357604052565b634e487b7160e01b5f52604160045260245ffd5b601f909101601f19168101906001600160401b03821190821017620003a35760405256fe608060409080825260049081361015610022575b5050503615610020575f80fd5b005b5f925f3560e01c918263078b0fb714611ff55750816311df504514611ef557816319a9026514611ebc57816324a13fc014611e8357816324a573ca14611e4a5781632fed418414611e0c5781633136a3b914611c93578163328c81a314611c5a5781633ee22fcd14611c21578163426120cd1461186d57816348890515146118345781634efaca65146117c7578163638b709a1461178f57816366fbe7331461155b5781636bb92a82146115405781636f9fb98a1461152757816374f0314f1461150b57816375f36197146114d25781637ed00b2d146114ba5781638489302e146114815781638d96e689146114695781638da5cb5b1461144357816391a501811461113057816394453fae146110f7578163a72c6b2214611056578163ae0ce3701461101d578163c482ceaf14610f53578163c483da2214610f1a578163c6a59d6714610edc578163c6ed044114610ba6578163cada25c214610b80578163caf0ca4714610b2a578163cf94ba0f146108ca578163db2e21bc14610876578163df426b101461083c578163e52e91441461075b578163f0acd7d51461023a575063f5770b1f146101d35780610013565b3461023657602036600319011261023657356001600160a01b038082168092036102325761020690600a5416331461250e565b7fffffffffffffffffffffffff0000000000000000000000000000000000000000600b541617600b5580f35b8280fd5b5080fd5b8391503461023657816003193601126102365761025633612559565b33825260209082825261026d818420543090612c7f565b3383528282526102803382852054612c7f565b3383526001938483526102963083862054612c7f565b3384528483526102a93383862054612c7f565b3384526005908184526102bf3084872054612c7f565b3385528184526102d23384872054612c7f565b3385528084526102e53084872054612c7f565b3385528084526102f83384872054612c7f565b33855260039182855261030e3085882054612c7f565b3386528285526103213385882054612c7f565b338652858552838620549661036d61035b61034361033d612be2565b8b6127ae565b9961035561034f612b93565b8261284c565b8b612d12565b33895288885280878a20553090612c7f565b3387528686526103803386892054612c7f565b610390600e54601154908a612d12565b85519061039c82612058565b815281878201428152338a52600d8952878a2092518355519101558451337f9c458d4af2e97b032bd1b235a5af0367e4aa9e385b6b4a8ba12d83ee8804659e8980a2448188019081524260208201523360601b6bffffffffffffffffffffffff191660408201524360548201529061042181607484015b03601f1981018352826120b8565b5190208160648206105f1461070c575086977f91878448ef87c3db4aeb83e60e7deb1240ecae3fd04975ec93547398514cb4ed9697935b8461060157503389528288528589205461049a92506104889161048261047c612b3d565b8361268d565b90612d12565b33895282885280868a20553090612c7f565b3387528086526104ad3385892054612c7f565b8181036105d65760ff905b81855193168352878784015216838201527f5c45296401ff630a9654379c00459a908687b562d88c8999c349cb22894b6fcb60603392a281517ff5e3f4fb3e1b45909c1ea49137114634cea181228f751e1754e5ef8365a165bc3391806105518160609060208152600e60208201527f5370696e20636f6d706c6574656400000000000000000000000000000000000060408201520190565b0390a23385528084526105673083872054612c7f565b33855280845261057a3383872054612c7f565b3385528084526105aa61059883872054610592612c30565b9061268d565b33875282865280848820553090612c7f565b33855283526105bc3382862054612c7f565b60648151938585528401523392a26105d333612765565b80f35b50600681036105e85760ff600f6104b8565b600781036105f95760ff601e6104b8565b60ff866104b8565b84830361063f57503389528288528589205461062792506104889161048261047c612ae8565b33875280865261063a3385892054612c7f565b6104ad565b60028510159081610701575b5015610659575b50506104ad565b8383036106a85761067d61068f91338b52838a52878b20549061048261047c612a99565b338a5282895280878b20553090612c7f565b33885286526106a13385892054612c7f565b8780610652565b600684036106e45761067d6106cd91338b52838a52878b20549061048261047c612a4a565b33885286526106df3385892054612c7f565b6106a1565b61067d6106cd91338b52838a52878b20549061048261047c6129fb565b90508411158a61064b565b6064600791040697818901809911610748577f91878448ef87c3db4aeb83e60e7deb1240ecae3fd04975ec93547398514cb4ed96979893610458565b602488601186634e487b7160e01b835252fd5b905034610232576020366003190112610232578135913384526013602052818420805460ff8116156107c2575b50505060126020528181842055519081527fa8004ebd362175ae54576800b471d2ee0e957a999351c9beec953da1fc20fd4060203392a280f35b60ff19166001179055601454906801000000000000000082101561082957506107f481600161081293016014556120da565b33906001600160a01b038084549260031b9316831b921b1916179055565b6014543384526015602052818420555f8080610788565b846041602492634e487b7160e01b835252fd5b9190503461023257602036600319011261023257356001600160a01b03811680910361023257828291602094526001845220549051908152f35b839034610236578160031936011261023657818080806001600160a01b03600a54166108a381331461250e565b47908282156108c1575bf1156108b7575080f35b51903d90823e3d90fd5b506108fc6108ad565b83915080600319360112610ad55760243567ffffffffffffffff8111610ad5576108f7903690850161202a565b9361090133612559565b61090a856123c4565b94610917845196876120b8565b8086526020923682820111610ad557815f928592838a0137870101526001600160a01b0382815f80516020612d7f83398151915254169685519788917f196d0b9b000000000000000000000000000000000000000000000000000000008352853586840152336024840152608060448401528051908160848501525f5b828110610b125750505f60a48483838383968401015260056064830152601f801991011681010301925af1958615610b08575f96610ad9575b507fed8d60e34876f751cc8b014c560745351147d9de11b9347c854e881b128ea6005416803b15610ad55783517f3e395cec0000000000000000000000000000000000000000000000000000000081529182018681523360208201525f91839182908490829060400103925af18015610acb57610ab1575b50600190610a75610a63610a8395963388528484528588205461268d565b33875283835280858820553090612c7f565b338552523390832054612c7f565b337f5eb22460289ffca9a6ef15bf87f9445e6c3d405ec0b5e00e29f466970fbdbaa78280a26105d333612765565b610a83935090610ac2600192612088565b5f935090610a45565b83513d5f823e3d90fd5b5f80fd5b9095508281813d8311610b01575b610af181836120b8565b81010312610ad5575194866109cd565b503d610ae7565b84513d5f823e3d90fd5b8181018601518c820160a4015288958c955001610994565b8234610ad5576020366003190112610ad557356001600160a01b038116809103610ad5575f52600d602052805f2060208251610b6581612058565b60018354938483520154918291015282519182526020820152f35b34610ad5575f366003190112610ad5576020906001600160a01b03600b54169051908152f35b905034610ad5575f366003190112610ad557610bc133612559565b335f526020915f8352610bd8825f20543090612c7f565b335f525f8352610beb33835f2054612c7f565b335f525f8352610c2f610c1d835f2054610c0c610c06612be2565b826127ae565b610482610c17612b93565b8361284c565b335f525f855280845f20553090612c7f565b335f525f8352610c4233835f2054612c7f565b8151448482019081524260208201523360601b6bffffffffffffffffffffffff1916604082015243605482015290919082607482010392610c8b601f19948581018352826120b8565b5190206001606482061015610eb657505f5b60058103610e8a5760ff6005915b169060ff8551918383525f8884015216858201527f5c45296401ff630a9654379c00459a908687b562d88c8999c349cb22894b6fcb60603392a283517ff5e3f4fb3e1b45909c1ea49137114634cea181228f751e1754e5ef8365a165bc339180610d478160609060208152600e60208201527f5370696e20636f6d706c6574656400000000000000000000000000000000000060408201520190565b0390a2335f5260168552835f205492610dcc85519182610dc0898201958833308992604994917fff00000000000000000000000000000000000000000000000000000000000000936bffffffffffffffffffffffff19809260601b16865260601b166014850152602884015260f81b1660488201520190565b039081018352826120b8565b519020335f5260178552835f20556018845281835f205560198452825f20600160ff1982541617905560018201809211610e775750610e6e92600391335f5260168252835f2055818152610e2330845f2054612c7f565b335f52818152610e3633845f2054612c7f565b335f52818152610e60610e4e845f2054610592612c30565b335f5283835280855f20553090612c7f565b335f525233905f2054612c7f565b61002033612765565b601190634e487b7160e01b5f525260245ffd5b60068103610e9d5760ff600f5b91610cab565b60078103610eae5760ff601e610e97565b60ff5f610e97565b606460079104066001810180911115610c9d57601182634e487b7160e01b5f525260245ffd5b8234610ad5576020366003190112610ad55735906001600160a01b038216809203610ad5576020915f526013825260ff815f20541690519015158152f35b8234610ad5576020366003190112610ad55735906001600160a01b038216809203610ad5576020915f5260078252805f20549051908152f35b905034610ad5575f366003190112610ad5576005610e6e92335f5260209060018252610f83845f20543090612c7f565b335f5260018252610f9733855f2054612c7f565b335f525f8252610faa30855f2054612c7f565b335f525f8252610fbd33855f2054612c7f565b335f5260038252610fd130855f2054612c7f565b335f5260038252610fe533855f2054612c7f565b335f52808252610ff830855f2054612c7f565b335f52815261100a33845f2054612c7f565b335f52818152610e6030845f2054612c7f565b8234610ad5576020366003190112610ad55735906001600160a01b038216809203610ad5576020915f5260128252805f20549051908152f35b8234610ad55781600319360112610ad55761107590602435903561243e565b8251838152825193810184905292839260209160608501918301905f5b8181106110d757505050838103828501528180845192838152019301915f5b8281106110c057505050500390f35b8351855286955093810193928101926001016110b1565b82516001600160a01b031684528796509284019291840191600101611092565b8234610ad5576020366003190112610ad55735906001600160a01b038216809203610ad5576020915f5260178252805f20549051908152f35b8234610ad55781600319360112610ad55780359167ffffffffffffffff9160248035848111610ad557611166903690840161202a565b61117295919533612559565b8615611401578187116113bf5786471061137d57335f52602095600c8752855f20548651888101913060601b83523360601b60348301528a604883015260688201526068815260a081018181108682111761136b5788525190206111d79291906128ea565b6001600160a01b0380600b541691160361132a57335f52600c8552835f20805490600182018092116113185755335f5260058552835f2054905f198701878111611318579181610482610c1761123d6112376112459661125898166129ab565b856127ae565b928b166129ab565b335f526005865280855f20553090612c7f565b335f526005845261126c33845f2054612c7f565b5f80808088335af13d15611313573d611284816123c4565b90611291865192836120b8565b81525f863d92013e5b156112d357847f0d7976053781e071cecf47e898ad2a6dc87621ca33734e96eb4b92453319e8c98585519283523392a261002033612765565b606493600f9293519362461bcd60e51b85528401528201527f5472616e73666572206661696c656400000000000000000000000000000000006044820152fd5b61129a565b83601186634e487b7160e01b5f52525ffd5b5060649360139293519362461bcd60e51b85528401528201527f496e76616c6964206174746573746174696f6e000000000000000000000000006044820152fd5b86604189634e487b7160e01b5f52525ffd5b606484601d85602089519362461bcd60e51b85528401528201527f496e73756666696369656e7420636f6e74726163742062616c616e63650000006044820152fd5b606484601085602089519362461bcd60e51b85528401528201527f416d6f756e7420746f6f206c61726765000000000000000000000000000000006044820152fd5b606484600e85602089519362461bcd60e51b85528401528201527f496e76616c696420616d6f756e740000000000000000000000000000000000006044820152fd5b34610ad5575f366003190112610ad5576020906001600160a01b03600a54169051908152f35b34610ad5575f366003190112610ad55761002061226a565b905034610ad5576020366003190112610ad5578135916001600160a01b038316809303610ad5576020925f528252805f20549051908152f35b34610ad5575f366003190112610ad557610020612123565b8234610ad5576020366003190112610ad55735906001600160a01b038216809203610ad5576020915f5260058252805f20549051908152f35b34610ad5575f366003190112610ad55760209051620151808152f35b34610ad5575f366003190112610ad55751478152602090f35b34610ad5575f366003190112610ad557602090516103e88152f35b8234610ad5575f366003190112610ad55761157533612559565b335f5260209160018352805f2054916001600160a01b035f80516020612d7f833981519152918183541691845187816044815f639cd07acb60e01b98898352600989840152600560248401525af19081156117855790889392915f91611754575b50935f6044926115e8600a978b6127ae565b975416885196879586948552840152600560248401525af1908115610acb575f91611723575b509061165e61164b856116456116c4957f613edc44c859ae57f4e2745ce37ddc4990be3f919e697b4dd07a5205f81b88b29861284c565b84612d12565b335f526001875280855f20553090612c7f565b335f526001855261167233845f2054612c7f565b335f525f85526116a5611693845f205461164561168d612b93565b8261268d565b335f525f875280855f20553090612c7f565b335f525f85526116b833845f2054612c7f565b600e54600f5491612d12565b8151906116d082612058565b81526001848201428152335f52600d8652835f2092518355519101555191337f9c458d4af2e97b032bd1b235a5af0367e4aa9e385b6b4a8ba12d83ee8804659e5f80a2600183523392a261002033612765565b9190508482813d831161174d575b61173b81836120b8565b81010312610ad557905161165e61160e565b503d611731565b84819592503d831161177e575b61176b81836120b8565b81010312610ad55791518792905f6115d6565b503d611761565b86513d5f823e3d90fd5b8234610ad5576020366003190112610ad55735906001600160a01b038216809203610ad5576020915f525f8252805f20549051908152f35b8234610ad557602080600319360112610ad5578135926001600160a01b038416809403610ad55760a0935f525f8252805f20549260018352815f20549160058452805f2054918452805f20549260038552815f205494825196875286015284015260608301526080820152f35b8234610ad5576020366003190112610ad55735906001600160a01b038216809203610ad5576020915f5260168252805f20549051908152f35b905034610ad557602080600319360112610ad557823560ff811690818103610ad55761189833612559565b335f526019835260ff845f20541615611bdf57335f5260188352610413611921855f20549286519283918783019533308892604994917fff00000000000000000000000000000000000000000000000000000000000000936bffffffffffffffffffffffff19809260601b16865260601b166014850152602884015260f81b1660488201520190565b519020335f5260178352835f205403611b9d57905f936119ed6119db84601795158814611a1e573388526005855261195c30888a2054612c7f565b3388526005855261197033888a2054612c7f565b3388526005855261199c611989888a2054610592612b3d565b338a526005875280898b20553090612c7f565b338852600585526119b033888a2054612c7f565b3388528385526119c330888a2054612c7f565b3388528385526119d633888a2054612c7f565b6129ab565b33875282845280868820553090612c7f565b33855281526119ff3384862054612c7f565b3384526019815282842060ff1981541690555281205561002033612765565b60018082148914611a84575033885260058552611a3e30888a2054612c7f565b33885260058552611a5233888a2054612c7f565b33885260058552611a6b611989888a2054610592612ae8565b33885260058552611a7f33888a2054612c7f565b6119b0565b600582148914611af057338952808652611aa130898b2054612c7f565b338952808652611ab433898b2054612c7f565b338952808652611ade611acc898b2054610592612a99565b338b52828852808a8c20553090612c7f565b3389528552611a7f33888a2054612c7f565b600682148914611b3857338952808652611b0d30898b2054612c7f565b338952808652611b2033898b2054612c7f565b338952808652611ade611acc898b2054610592612a4a565b60078214611b47575b506119b0565b338952808652611b5a30898b2054612c7f565b338952808652611b6d33898b2054612c7f565b338952808652611b85611acc898b20546105926129fb565b3389528552611b9733888a2054612c7f565b88611b41565b5060649291519162461bcd60e51b8352820152601260248201527f496e76616c696420736574746c656d656e7400000000000000000000000000006044820152fd5b6064858486519162461bcd60e51b8352820152601060248201527f4e6f2070656e64696e67207072697a65000000000000000000000000000000006044820152fd5b8234610ad5576020366003190112610ad55735906001600160a01b038216809203610ad5576020915f52600c8252805f20549051908152f35b8234610ad5576020366003190112610ad55735906001600160a01b038216809203610ad5576020915f5260098252805f20549051908152f35b905034610ad557602080600319360112610ad55782359167ffffffffffffffff808416809403610ad557611cc633612559565b83151580611e01575b15611dbf57335f5260018352815f205490600a850295818716968703610e77575f19870190828211610e77575095611d5f611d4c611d9c9461164561034f611d46611d40611d8a987f613edc44c859ae57f4e2745ce37ddc4990be3f919e697b4dd07a5205f81b88b29d9e166129ab565b846127ae565b956129ab565b335f526001875280865f20553090612c7f565b335f5260018552611d7333855f2054612c7f565b335f525f8552835f20549061048261047c896129ab565b335f525f845280835f20553090612c7f565b335f525f8252611daf33825f2054612c7f565b519283523392a261002033612765565b6064858484519162461bcd60e51b8352820152600d60248201527f696e76616c696420636f756e74000000000000000000000000000000000000006044820152fd5b506032841115611ccf565b8234610ad5576020366003190112610ad55735906001600160a01b038216809203610ad5576020915f526019825260ff815f20541690519015158152f35b8234610ad5576020366003190112610ad55735906001600160a01b038216809203610ad5576020915f5260038252805f20549051908152f35b8234610ad5576020366003190112610ad55735906001600160a01b038216809203610ad5576020915f5260188252805f20549051908152f35b8234610ad5576020366003190112610ad55735906001600160a01b038216809203610ad5576020915f5260068252805f20549051908152f35b825f366003190112610ad557611f0a33612559565b3415611fb3576103e8908134029134830403610e775750670de0b6b3a7640000900490611f6b611f57611f4667ffffffffffffffff85166129ab565b335f526001602052835f205461268d565b335f52600160205280835f20553090612c7f565b335f526001602052611f8033825f2054612c7f565b519081527f2df747ea49445e73b60e268d884585144855c4f022c8d6c7aad44708a9c83b2260203392a261002033612765565b6020606492519162461bcd60e51b8352820152600d60248201527f4d7573742073656e6420455448000000000000000000000000000000000000006044820152fd5b8334610ad5576020366003190112610ad55735916001600160a01b038316809303610ad5576020925f52600283525f20548152f35b9181601f84011215610ad55782359167ffffffffffffffff8311610ad55760208381860195010111610ad557565b6040810190811067ffffffffffffffff82111761207457604052565b634e487b7160e01b5f52604160045260245ffd5b67ffffffffffffffff811161207457604052565b6020810190811067ffffffffffffffff82111761207457604052565b90601f8019910116810190811067ffffffffffffffff82111761207457604052565b60145481101561210f5760145f527fce6d7b5282bd9a3661ae061feed1dbda4e52ab073b1f9285be6e155d9c38d4ec01905f90565b634e487b7160e01b5f52603260045260245ffd5b335f52601360205260405f20805460ff8116156122665760ff1916905560126020525f6040812055601560205260405f205480612183575b50337f1c6b0c6e774ba78fff6fe943c64e4e530cb52e0ddf625dd35cb80a0f2bd150a05f80a2565b6014548082036121e3575b505060145480156121cf575f19016121a5816120da565b6001600160a01b0382549160031b1b19169055601455335f5260156020525f60408120555f61215b565b634e487b7160e01b5f52603160045260245ffd5b5f1990808201908111612252576122016001600160a01b03916120da565b90549060031b1c16908201828111612252578161222061223f926120da565b9091906001600160a01b038084549260031b9316831b921b1916179055565b5f52601560205260405f20555f8061218e565b634e487b7160e01b5f52601160045260245ffd5b5050565b61227333612559565b620151804204335f5260209060078252604090815f205481111561236257907f81a25468fabedbbaa9179ae90960445ca6426a7aeae439b462bb74f0a89ab3759160078452815f20556006835242815f20555f83526122ec6122da825f2054610592612b93565b335f525f855280835f20553090612c7f565b335f525f83526122ff33825f2054612c7f565b600e5481519061230e82612058565b81526001848201428152335f52600d8652835f2092518355519101555191337f9c458d4af2e97b032bd1b235a5af0367e4aa9e385b6b4a8ba12d83ee8804659e5f80a24283523392a261236033612765565b565b50906001906010549280519361237785612058565b8452600d82850192428452335f52525f209251835551910155337f9c458d4af2e97b032bd1b235a5af0367e4aa9e385b6b4a8ba12d83ee8804659e5f80a2565b9190820180921161225257565b67ffffffffffffffff811161207457601f01601f191660200190565b67ffffffffffffffff81116120745760051b60200190565b90612402826123e0565b61240f60405191826120b8565b8281528092612420601f19916123e0565b0190602036910137565b805182101561210f5760209160051b010190565b909160145492838310156124e25761245690836123b7565b928084116124da575b5081830392831161225257612473836123f8565b9261247d816123f8565b925f5b82811061248c57505050565b806001600160a01b036124a96124a4600194866123b7565b6120da565b90549060031b1c16806124bc838a61242a565b525f52601260205260405f20546124d3828861242a565b5201612480565b92505f61245f565b50915050604051906124f38261209c565b5f8252604051916125038361209c565b5f83525f3681379190565b1561251557565b606460405162461bcd60e51b815260206004820152600a60248201527f4f6e6c79206f776e6572000000000000000000000000000000000000000000006044820152fd5b6001600160a01b03811690815f5260206008815260409260ff845f2054166126875761267560089361259f61258c612be2565b845f526001865280885f20553090612c7f565b825f52600184526125b381875f2054612c7f565b6125d06125be612be2565b845f525f865280885f20553090612c7f565b825f525f84526125e381875f2054612c7f565b6126016125ee612be2565b845f526003865280885f20553090612c7f565b825f526003845261261581875f2054612c7f565b612633612620612be2565b845f526004865280885f20553090612c7f565b825f526004845261264781875f2054612c7f565b612665612652612be2565b845f526005865280885f20553090612c7f565b825f5260058452855f2054612c7f565b5f52525f20600160ff19825416179055565b50505050565b908115612755575b8015612743575b60209060646001600160a01b035f80516020612d7f8339815191525416935f60405195869485937f117b2f38000000000000000000000000000000000000000000000000000000008552600485015260248401528160448401525af1908115612738575f91612709575090565b90506020813d602011612730575b81612724602093836120b8565b81010312610ad5575190565b3d9150612717565b6040513d5f823e3d90fd5b50602061274e612be2565b905061269c565b905061275f612be2565b90612695565b6001600160a01b0316805f5260096020527faab469e68c1a9950d09bf98d5dbd05ceb4e8e5d3fc891afa9be48ff1911ad4a3602060405f206001815401809155604051908152a2565b90811561283c575b801561282a575b60209060646001600160a01b035f80516020612d7f8339815191525416935f60405195869485937f85362ee7000000000000000000000000000000000000000000000000000000008552600485015260248401528160448401525af1908115612738575f91612709575090565b506020612835612be2565b90506127bd565b9050612846612be2565b906127b6565b9081156128da575b80156128c8575b60209060646001600160a01b035f80516020612d7f8339815191525416935f60405195869485937f182b6d98000000000000000000000000000000000000000000000000000000008552600485015260248401528160448401525af1908115612738575f91612709575090565b5060206128d3612be2565b905061285b565b90506128e4612be2565b90612854565b906040519260208401927f19457468657265756d205369676e6564204d6573736167653a0a3332000000008452603c850152603c8452606084019284841067ffffffffffffffff85111761207457604190846040528551902091036129a35760408201355f1a90601b821061298d575b9360c0602060809460ff879583995f99521686850152803560a0850152013591015282805260015afa15612738575f5190565b9290601b019360ff85116122525793909261295a565b505050505f90565b60205f9160446001600160a01b035f80516020612d7f8339815191525416916040519485938492639cd07acb60e01b84526004840152600560248401525af1908115612738575f91612709575090565b5f60206001600160a01b035f80516020612d7f8339815191525416604460405180948193639cd07acb60e01b8352601e6004840152600560248401525af1908115612738575f91612709575090565b5f60206001600160a01b035f80516020612d7f8339815191525416604460405180948193639cd07acb60e01b8352600f6004840152600560248401525af1908115612738575f91612709575090565b5f60206001600160a01b035f80516020612d7f8339815191525416604460405180948193639cd07acb60e01b835260056004840152600560248401525af1908115612738575f91612709575090565b5f60206001600160a01b035f80516020612d7f8339815191525416604460405180948193639cd07acb60e01b8352662386f26fc100006004840152600560248401525af1908115612738575f91612709575090565b5f60206001600160a01b035f80516020612d7f8339815191525416604460405180948193639cd07acb60e01b835267016345785d8a00006004840152600560248401525af1908115612738575f91612709575090565b5f60206001600160a01b035f80516020612d7f8339815191525416604460405180948193639cd07acb60e01b835260016004840152600560248401525af1908115612738575f91612709575090565b5f60206001600160a01b035f80516020612d7f8339815191525416604460405180948193639cd07acb60e01b8352816004840152600560248401525af1908115612738575f91612709575090565b5f60206001600160a01b035f80516020612d7f8339815191525416604460405180948193639cd07acb60e01b835260646004840152600560248401525af1908115612738575f91612709575090565b6001600160a01b037fed8d60e34876f751cc8b014c560745351147d9de11b9347c854e881b128ea600541691823b15610ad5576040517fb9496b6200000000000000000000000000000000000000000000000000000000815260048101929092526001600160a01b03166024820152905f908290604490829084905af1801561273857612d095750565b61236090612088565b9060646020925f6001600160a01b035f80516020612d7f833981519152541660405196879586947f7702dcff0000000000000000000000000000000000000000000000000000000086526004860152602485015260448401525af1908115612738575f9161270957509056feed8d60e34876f751cc8b014c560745351147d9de11b9347c854e881b128ea601a164736f6c6343000818000a",
  "linkReferences": {},
  "deployedLinkReferences": {}
}