{
  "_format": "hh-sol-artifact-1",
  "contractName": "LuckySpinFHE_Simple",
  "sourceName": "contracts/LuckySpinFHE_Simple.sol",
  "abi": [
    {
      "inputs": [],
      "stateMutability": "nonpayable",
      "type": "constructor"
    },
    {
      "anonymous": false,
      "inputs": [
        {
          "indexed": true,
          "internalType": "address",
          "name": "user",
          "type": "address"
        },
        {
          "indexed": false,
          "internalType": "uint256",
          "name": "timestamp",
          "type": "uint256"
        }
      ],
      "name": "DailyGmCompleted",
      "type": "event"
    },
    {
      "anonymous": false,
      "inputs": [
        {
          "indexed": true,
          "internalType": "address",
          "name": "user",
          "type": "address"
        },
        {
          "indexed": false,
          "internalType": "uint256",
          "name": "amount",
          "type": "uint256"
        }
      ],
      "name": "GmTokensBought",
      "type": "event"
    },
    {
      "anonymous": false,
      "inputs": [
        {
          "indexed": true,
          "internalType": "address",
          "name": "user",
          "type": "address"
        },
        {
          "indexed": false,
          "internalType": "string",
          "name": "result",
          "type": "string"
        }
      ],
      "name": "SpinCompleted",
      "type": "event"
    },
    {
      "anonymous": false,
      "inputs": [
        {
          "indexed": true,
          "internalType": "address",
          "name": "user",
          "type": "address"
        },
        {
          "indexed": false,
          "internalType": "uint256",
          "name": "value",
          "type": "uint256"
        }
      ],
      "name": "SpinPurchased",
      "type": "event"
    },
    {
      "inputs": [],
      "name": "DAILY_GM_RESET_HOUR",
      "outputs": [
        {
          "internalType": "uint256",
          "name": "",
          "type": "uint256"
        }
      ],
      "stateMutability": "view",
      "type": "function"
    },
    {
      "inputs": [
        {
          "internalType": "bytes",
          "name": "encryptedData",
          "type": "bytes"
        },
        {
          "internalType": "bytes",
          "name": "proof",
          "type": "bytes"
        }
      ],
      "name": "buyGmTokens",
      "outputs": [],
      "stateMutability": "payable",
      "type": "function"
    },
    {
      "inputs": [
        {
          "internalType": "address",
          "name": "user",
          "type": "address"
        }
      ],
      "name": "canGmToday",
      "outputs": [
        {
          "internalType": "bool",
          "name": "",
          "type": "bool"
        }
      ],
      "stateMutability": "view",
      "type": "function"
    },
    {
      "inputs": [],
      "name": "dailyGm",
      "outputs": [],
      "stateMutability": "nonpayable",
      "type": "function"
    },
    {
      "inputs": [],
      "name": "getContractBalance",
      "outputs": [
        {
          "internalType": "uint256",
          "name": "",
          "type": "uint256"
        }
      ],
      "stateMutability": "view",
      "type": "function"
    },
    {
      "inputs": [
        {
          "internalType": "address",
          "name": "user",
          "type": "address"
        }
      ],
      "name": "getLastGmTime",
      "outputs": [
        {
          "internalType": "uint256",
          "name": "",
          "type": "uint256"
        }
      ],
      "stateMutability": "view",
      "type": "function"
    },
    {
      "inputs": [
        {
          "internalType": "address",
          "name": "user",
          "type": "address"
        }
      ],
      "name": "getTimeUntilNextGm",
      "outputs": [
        {
          "internalType": "uint256",
          "name": "",
          "type": "uint256"
        }
      ],
      "stateMutability": "view",
      "type": "function"
    },
    {
      "inputs": [
        {
          "internalType": "address",
          "name": "user",
          "type": "address"
        }
      ],
      "name": "getUserRewards",
      "outputs": [
        {
          "internalType": "uint256",
          "name": "",
          "type": "uint256"
        }
      ],
      "stateMutability": "view",
      "type": "function"
    },
    {
      "inputs": [
        {
          "internalType": "address",
          "name": "user",
          "type": "address"
        }
      ],
      "name": "getUserSpins",
      "outputs": [
        {
          "internalType": "uint256",
          "name": "",
          "type": "uint256"
        }
      ],
      "stateMutability": "view",
      "type": "function"
    },
    {
      "inputs": [],
      "name": "owner",
      "outputs": [
        {
          "internalType": "address",
          "name": "",
          "type": "address"
        }
      ],
      "stateMutability": "view",
      "type": "function"
    },
    {
      "inputs": [],
      "name": "pricePerSpin",
      "outputs": [
        {
          "internalType": "uint256",
          "name": "",
          "type": "uint256"
        }
      ],
      "stateMutability": "view",
      "type": "function"
    },
    {
      "inputs": [],
      "name": "spin",
      "outputs": [],
      "stateMutability": "payable",
      "type": "function"
    },
    {
      "inputs": [],
      "name": "GM_TOKEN_RATE",
      "outputs": [
        {
          "internalType": "uint256",
          "name": "",
          "type": "uint256"
        }
      ],
      "stateMutability": "view",
      "type": "function"
    },
    {
      "inputs": [],
      "name": "SECONDS_PER_DAY",
      "outputs": [
        {
          "internalType": "uint256",
          "name": "",
          "type": "uint256"
        }
      ],
      "stateMutability": "view",
      "type": "function"
    },
    {
      "inputs": [],
      "name": "SPIN_PRICE",
      "outputs": [
        {
          "internalType": "uint256",
          "name": "",
          "type": "uint256"
        }
      ],
      "stateMutability": "view",
      "type": "function"
    },
    {
      "inputs": [
        {
          "internalType": "externalEuint64",
          "name": "encryptedAmount",
          "type": "bytes32"
        },
        {
          "internalType": "bytes",
          "name": "proof",
          "type": "bytes"
        }
      ],
      "name": "buyGmTokens",
      "outputs": [],
      "stateMutability": "payable",
      "type": "function"
    },
    {
      "inputs": [
        {
          "internalType": "externalEuint64",
          "name": "encryptedAmount",
          "type": "bytes32"
        },
        {
          "internalType": "bytes",
          "name": "proof",
          "type": "bytes"
        }
      ],
      "name": "buySpins",
      "outputs": [],
      "stateMutability": "payable",
      "type": "function"
    },
    {
      "inputs": [
        {
          "internalType": "address",
          "name": "user",
          "type": "address"
        }
      ],
      "name": "canGmToday",
      "outputs": [
        {
          "internalType": "bool",
          "name": "",
          "type": "bool"
        }
      ],
      "stateMutability": "view",
      "type": "function"
    },
    {
      "inputs": [
        {
          "internalType": "externalEuint64",
          "name": "encryptedGmValue",
          "type": "bytes32"
        },
        {
          "internalType": "bytes",
          "name": "proof",
          "type": "bytes"
        }
      ],
      "name": "dailyGm",
      "outputs": [],
      "stateMutability": "nonpayable",
      "type": "function"
    },
    {
      "inputs": [],
      "name": "emergencyWithdraw",
      "outputs": [],
      "stateMutability": "nonpayable",
      "type": "function"
    },
    {
      "inputs": [],
      "name": "getContractBalance",
      "outputs": [
        {
          "internalType": "uint256",
          "name": "",
          "type": "uint256"
        }
      ],
      "stateMutability": "view",
      "type": "function"
    },
    {
      "inputs": [
        {
          "internalType": "address",
          "name": "user",
          "type": "address"
        }
      ],
      "name": "getLastGmTime",
      "outputs": [
        {
          "internalType": "uint256",
          "name": "",
          "type": "uint256"
        }
      ],
      "stateMutability": "view",
      "type": "function"
    },
    {
      "inputs": [
        {
          "internalType": "address",
          "name": "user",
          "type": "address"
        }
      ],
      "name": "getTimeUntilNextGm",
      "outputs": [
        {
          "internalType": "uint256",
          "name": "",
          "type": "uint256"
        }
      ],
      "stateMutability": "view",
      "type": "function"
    },
    {
      "inputs": [
        {
          "internalType": "address",
          "name": "user",
          "type": "address"
        }
      ],
      "name": "getUserRewards",
      "outputs": [
        {
          "internalType": "euint256",
          "name": "",
          "type": "bytes32"
        }
      ],
      "stateMutability": "view",
      "type": "function"
    },
    {
      "inputs": [
        {
          "internalType": "address",
          "name": "user",
          "type": "address"
        }
      ],
      "name": "getUserSpins",
      "outputs": [
        {
          "internalType": "euint64",
          "name": "",
          "type": "bytes32"
        }
      ],
      "stateMutability": "view",
      "type": "function"
    },
    {
      "inputs": [
        {
          "internalType": "address",
          "name": "",
          "type": "address"
        }
      ],
      "name": "lastGmTime",
      "outputs": [
        {
          "internalType": "uint256",
          "name": "",
          "type": "uint256"
        }
      ],
      "stateMutability": "view",
      "type": "function"
    },
    {
      "inputs": [],
      "name": "owner",
      "outputs": [
        {
          "internalType": "address",
          "name": "",
          "type": "address"
        }
      ],
      "stateMutability": "view",
      "type": "function"
    },
    {
      "inputs": [],
      "name": "spin",
      "outputs": [],
      "stateMutability": "nonpayable",
      "type": "function"
    },
    {
      "inputs": [
        {
          "internalType": "address",
          "name": "",
          "type": "address"
        }
      ],
      "name": "userRewards",
      "outputs": [
        {
          "internalType": "euint256",
          "name": "",
          "type": "bytes32"
        }
      ],
      "stateMutability": "view",
      "type": "function"
    },
    {
      "inputs": [
        {
          "internalType": "address",
          "name": "",
          "type": "address"
        }
      ],
      "name": "userSpins",
      "outputs": [
        {
          "internalType": "euint64",
          "name": "",
          "type": "bytes32"
        }
      ],
      "stateMutability": "view",
      "type": "function"
    },
    {
      "stateMutability": "payable",
      "type": "receive"
    }
  ],
  "bytecode": "0x608060405234801561000f575f80fd5b5061018a6100ae604080516080810182525f80825260208201819052918101829052606081019190915250604080516080810182527350157cffd6bbfa2dece204a89ec419c23ef5755d815273cd3ab3bd6bcc0c0bf3e27912a92043e817b1cf696020820152731364cbbf2cdf5032c47d8226a6f6fbd2afcdacac9181019190915273901f8942346f7ab3a01f6d7613119bca447bb030606082015290565b80517fed8d60e34876f751cc8b014c560745351147d9de11b9347c854e881b128ea60080546001600160a01b03199081166001600160a01b039384161790915560208301517fed8d60e34876f751cc8b014c560745351147d9de11b9347c854e881b128ea6018054831691841691909117905560408301517fed8d60e34876f751cc8b014c560745351147d9de11b9347c854e881b128ea6028054831691841691909117905560608301517fed8d60e34876f751cc8b014c560745351147d9de11b9347c854e881b128ea6038054909216921691909117905550565b7f5ea69329017273582817d320489fbd94f775580e90c092699ca6f3d12fdf7d0080546001600160a01b03191673a02cda4ca3a71d7c46997716f4283aa851c28812179055600380546001600160a01b031916331790556110e1806101ee5f395ff3fe608060405260043610610140575f3560e01c80636f9fb98a116100bb5780638ce32f6211610071578063db2e21bc11610057578063db2e21bc14610381578063f0acd7d514610395578063feeeaec6146103a9575f80fd5b80638ce32f62146103305780638da5cb5b1461034a575f80fd5b80638081af92116100a15780638081af92146102d35780638341f5f4146102f257806385a66a9a14610305575f80fd5b80636f9fb98a146102ab57806374f0314f146102bd575f80fd5b806342ea181811610110578063638b709a116100f6578063638b709a1461022f5780636977ffce146102635780636bb92a8214610297575f80fd5b806342ea1818146101fd5780635128f5d814610210575f80fd5b80630660f1e81461014b578063078b0fb714610189578063102f4c2c146101bd5780631ec505c8146101e8575f80fd5b3661014757005b5f80fd5b348015610156575f80fd5b50610176610165366004610f3d565b60016020525f908152604090205481565b6040519081526020015b60405180910390f35b348015610194575f80fd5b506101766101a3366004610f3d565b6001600160a01b03165f9081526001602052604090205490565b3480156101c8575f80fd5b506101766101d7366004610f3d565b5f6020819052908152604090205481565b6101fb6101f6366004610f63565b6103d8565b005b6101fb61020b366004610f63565b6104d0565b34801561021b575f80fd5b5061017661022a366004610f3d565b61061a565b34801561023a575f80fd5b50610176610249366004610f3d565b6001600160a01b03165f9081526020819052604090205490565b34801561026e575f80fd5b5061017661027d366004610f3d565b6001600160a01b03165f9081526002602052604090205490565b3480156102a2575f80fd5b50610176606481565b3480156102b6575f80fd5b5047610176565b3480156102c8575f80fd5b506101766201518081565b3480156102de575f80fd5b506101fb6102ed366004610f63565b610668565b3480156102fd575f80fd5b506101765f81565b348015610310575f80fd5b5061017661031f366004610f3d565b60026020525f908152604090205481565b34801561033b575f80fd5b50610176662386f26fc1000081565b348015610355575f80fd5b50600354610369906001600160a01b031681565b6040516001600160a01b039091168152602001610180565b34801561038c575f80fd5b506101fb61079f565b3480156103a0575f80fd5b506101fb610832565b3480156103b4575f80fd5b506103c86103c3366004610f3d565b610913565b6040519015158152602001610180565b5f341161041c5760405162461bcd60e51b815260206004820152600d60248201526c09aeae6e840e6cadcc8408aa89609b1b60448201526064015b60405180910390fd5b5f61045c8484848080601f0160208091040260200160405190810160405280939291908181526020018383808284375f9201919091525061094592505050565b335f90815260208190526040902054909150610478818361095b565b335f90815260208190526040902081905561049290610989565b5060405134815233907f076067a34fd4f9217e64ab838027dd724d9de9e2751f334656ccb1ec1ba19a65906020015b60405180910390a25050505050565b5f341161050f5760405162461bcd60e51b815260206004820152600d60248201526c09aeae6e840e6cadcc8408aa89609b1b6044820152606401610413565b66038d7ea4c680003410156105715760405162461bcd60e51b815260206004820152602260248201527f4d696e696d756d2045544820726571756972656420666f7220474d20746f6b656044820152616e7360f01b6064820152608401610413565b5f6105b18484848080601f0160208091040260200160405190810160405280939291908181526020018383808284375f9201919091525061094592505050565b335f908152602081905260409020549091506105cd818361095b565b335f9081526020819052604090208190556105e790610989565b5060405134815233907f2df747ea49445e73b60e268d884585144855c4f022c8d6c7aad44708a9c83b22906020016104c1565b6001600160a01b0381165f908152600260205260408120544290826106426201518083610fec565b905080831061065557505f949350505050565b61065f8382610fff565b95945050505050565b5f6106a88484848080601f0160208091040260200160405190810160405280939291908181526020018383808284375f9201919091525061094592505050565b335f9081526002602052604090205490915042906106c96201518082610fec565b8210156107185760405162461bcd60e51b815260206004820152601e60248201527f4461696c7920474d20616c726561647920636c61696d656420746f64617900006044820152606401610413565b335f90815260026020908152604080832085905590829052902054610746816107416001610998565b61095b565b335f90815260208190526040902081905561076090610989565b5060405183815233907f37ccb18c1086c97a71a6b1d3cff5359c8a4ac35865ad7c72d7a71610d3171d149060200160405180910390a250505050505050565b6003546001600160a01b031633146107f95760405162461bcd60e51b815260206004820152600a60248201527f4f6e6c79206f776e6572000000000000000000000000000000000000000000006044820152606401610413565b6003546040516001600160a01b03909116904780156108fc02915f818181858888f1935050505015801561082f573d5f803e3d5ffd5b50565b335f908152602081905260409020546108548161084f6001610998565b6109ae565b335f90815260208190526040902081905561086e90610989565b505f6108786109dc565b9050610883816109ec565b335f90815260016020526040902081905561089d90610989565b50336001600160a01b03167ff5e3f4fb3e1b45909c1ea49137114634cea181228f751e1754e5ef8365a165bc604051610907906020808252600e908201527f5370696e20636f6d706c65746564000000000000000000000000000000000000604082015260600190565b60405180910390a25050565b6001600160a01b0381165f90815260026020526040812054429061093a6201518082610fec565b909110159392505050565b5f610952838360056109f8565b90505b92915050565b5f8261096d5761096a5f610998565b92505b8161097e5761097b5f610998565b91505b61095283835f610b18565b5f6109948230610c13565b5090565b5f6109558267ffffffffffffffff166005610c9c565b5f826109c0576109bd5f610998565b92505b816109d1576109ce5f610998565b91505b61095283835f610d59565b5f6109e76005610e0e565b905090565b5f610955826008610ec8565b7fed8d60e34876f751cc8b014c560745351147d9de11b9347c854e881b128ea6015460405163196d0b9b60e01b81525f917fed8d60e34876f751cc8b014c560745351147d9de11b9347c854e881b128ea600916001600160a01b039091169063196d0b9b90610a71908890339089908990600401611032565b6020604051808303815f875af1158015610a8d573d5f803e3d5ffd5b505050506040513d601f19601f82011682018060405250810190610ab1919061109b565b8154604051630f8e573b60e21b8152600481018390523360248201529193506001600160a01b031690633e395cec906044015f604051808303815f87803b158015610afa575f80fd5b505af1158015610b0c573d5f803e3d5ffd5b50505050509392505050565b5f808215610b2b5750600160f81b610b2e565b505f5b7fed8d60e34876f751cc8b014c560745351147d9de11b9347c854e881b128ea6015460405163022f65e760e31b815260048101879052602481018690527fff00000000000000000000000000000000000000000000000000000000000000831660448201527fed8d60e34876f751cc8b014c560745351147d9de11b9347c854e881b128ea600916001600160a01b03169063117b2f38906064015b6020604051808303815f875af1158015610be5573d5f803e3d5ffd5b505050506040513d601f19601f82011682018060405250810190610c09919061109b565b9695505050505050565b5f7fed8d60e34876f751cc8b014c560745351147d9de11b9347c854e881b128ea6008054604051635ca4b5b160e11b8152600481018690526001600160a01b03858116602483015292935091169063b9496b62906044015f604051808303815f87803b158015610c81575f80fd5b505af1158015610c93573d5f803e3d5ffd5b50505050505050565b7fed8d60e34876f751cc8b014c560745351147d9de11b9347c854e881b128ea60154604051639cd07acb60e01b81525f917fed8d60e34876f751cc8b014c560745351147d9de11b9347c854e881b128ea600916001600160a01b0390911690639cd07acb90610d1190879087906004016110b2565b6020604051808303815f875af1158015610d2d573d5f803e3d5ffd5b505050506040513d601f19601f82011682018060405250810190610d51919061109b565b949350505050565b5f808215610d6c5750600160f81b610d6f565b505f5b7fed8d60e34876f751cc8b014c560745351147d9de11b9347c854e881b128ea601546040516303056db360e31b815260048101879052602481018690527fff00000000000000000000000000000000000000000000000000000000000000831660448201527fed8d60e34876f751cc8b014c560745351147d9de11b9347c854e881b128ea600916001600160a01b03169063182b6d9890606401610bc9565b7fed8d60e34876f751cc8b014c560745351147d9de11b9347c854e881b128ea60154604051636baeb74560e11b81525f917fed8d60e34876f751cc8b014c560745351147d9de11b9347c854e881b128ea600916001600160a01b039091169063d75d6e8a90610e819086906004016110c6565b6020604051808303815f875af1158015610e9d573d5f803e3d5ffd5b505050506040513d601f19601f82011682018060405250810190610ec1919061109b565b9392505050565b7fed8d60e34876f751cc8b014c560745351147d9de11b9347c854e881b128ea601546040516307227b9160e21b81525f917fed8d60e34876f751cc8b014c560745351147d9de11b9347c854e881b128ea600916001600160a01b0390911690631c89ee4490610d1190879087906004016110b2565b5f60208284031215610f4d575f80fd5b81356001600160a01b0381168114610ec1575f80fd5b5f805f60408486031215610f75575f80fd5b83359250602084013567ffffffffffffffff80821115610f93575f80fd5b818601915086601f830112610fa6575f80fd5b813581811115610fb4575f80fd5b876020828501011115610fc5575f80fd5b6020830194508093505050509250925092565b634e487b7160e01b5f52601160045260245ffd5b8082018082111561095557610955610fd8565b8181038181111561095557610955610fd8565b6054811061102e57634e487b7160e01b5f52602160045260245ffd5b9052565b8481525f60206001600160a01b03861660208401526080604084015284518060808501525f5b818110156110745786810183015185820160a001528201611058565b505f60a0828601015260a0601f19601f8301168501019250505061065f6060830184611012565b5f602082840312156110ab575f80fd5b5051919050565b82815260408101610ec16020830184611012565b60208101610955828461101256fea164736f6c6343000818000a",
  "linkReferences": {},
  "deployedLinkReferences": {}
}